{
  "contractName": "StakePool",
  "abi": [
    {
      "inputs": [
        {
          "internalType": "contract MdtToken",
          "name": "_mdtToken",
          "type": "address"
        }
      ],
      "stateMutability": "nonpayable",
      "type": "constructor"
    },
    {
      "inputs": [
        {
          "internalType": "address",
          "name": "",
          "type": "address"
        }
      ],
      "name": "hasStaked",
      "outputs": [
        {
          "internalType": "bool",
          "name": "",
          "type": "bool"
        }
      ],
      "stateMutability": "view",
      "type": "function",
      "constant": true
    },
    {
      "inputs": [
        {
          "internalType": "address",
          "name": "",
          "type": "address"
        }
      ],
      "name": "isStaking",
      "outputs": [
        {
          "internalType": "bool",
          "name": "",
          "type": "bool"
        }
      ],
      "stateMutability": "view",
      "type": "function",
      "constant": true
    },
    {
      "inputs": [],
      "name": "mdtToken",
      "outputs": [
        {
          "internalType": "contract MdtToken",
          "name": "",
          "type": "address"
        }
      ],
      "stateMutability": "view",
      "type": "function",
      "constant": true
    },
    {
      "inputs": [],
      "name": "name",
      "outputs": [
        {
          "internalType": "string",
          "name": "",
          "type": "string"
        }
      ],
      "stateMutability": "view",
      "type": "function",
      "constant": true
    },
    {
      "inputs": [],
      "name": "owner",
      "outputs": [
        {
          "internalType": "address",
          "name": "",
          "type": "address"
        }
      ],
      "stateMutability": "view",
      "type": "function",
      "constant": true
    },
    {
      "inputs": [
        {
          "internalType": "address",
          "name": "",
          "type": "address"
        }
      ],
      "name": "stakeTime",
      "outputs": [
        {
          "internalType": "uint256",
          "name": "",
          "type": "uint256"
        }
      ],
      "stateMutability": "view",
      "type": "function",
      "constant": true
    },
    {
      "inputs": [
        {
          "internalType": "uint256",
          "name": "",
          "type": "uint256"
        }
      ],
      "name": "stakers",
      "outputs": [
        {
          "internalType": "address",
          "name": "",
          "type": "address"
        }
      ],
      "stateMutability": "view",
      "type": "function",
      "constant": true
    },
    {
      "inputs": [
        {
          "internalType": "address",
          "name": "",
          "type": "address"
        }
      ],
      "name": "stakingBalance",
      "outputs": [
        {
          "internalType": "uint256",
          "name": "",
          "type": "uint256"
        }
      ],
      "stateMutability": "view",
      "type": "function",
      "constant": true
    },
    {
      "inputs": [
        {
          "internalType": "address",
          "name": "_caller",
          "type": "address"
        }
      ],
      "name": "getBal",
      "outputs": [
        {
          "internalType": "uint256",
          "name": "",
          "type": "uint256"
        }
      ],
      "stateMutability": "view",
      "type": "function",
      "constant": true
    },
    {
      "inputs": [
        {
          "internalType": "uint256",
          "name": "_amount",
          "type": "uint256"
        }
      ],
      "name": "stakeTokens",
      "outputs": [],
      "stateMutability": "nonpayable",
      "type": "function"
    },
    {
      "inputs": [
        {
          "internalType": "address",
          "name": "_staker",
          "type": "address"
        },
        {
          "internalType": "uint256",
          "name": "_balance",
          "type": "uint256"
        }
      ],
      "name": "mintRewards",
      "outputs": [],
      "stateMutability": "nonpayable",
      "type": "function"
    },
    {
      "inputs": [
        {
          "internalType": "uint256",
          "name": "_balance",
          "type": "uint256"
        },
        {
          "internalType": "uint256",
          "name": "_rewardTime",
          "type": "uint256"
        }
      ],
      "name": "calculateRewards",
      "outputs": [
        {
          "internalType": "uint256",
          "name": "",
          "type": "uint256"
        }
      ],
      "stateMutability": "nonpayable",
      "type": "function"
    },
    {
      "inputs": [
        {
          "internalType": "uint256",
          "name": "_amount",
          "type": "uint256"
        }
      ],
      "name": "unstakeTokens",
      "outputs": [],
      "stateMutability": "nonpayable",
      "type": "function"
    }
  ],
  "bytecode": "0x60806040526040518060400160405280601181526020017f5374616b6520506f6f6c2053797374656d000000000000000000000000000000815250600090805190602001906200005192919062000130565b5062278d006002556004600355602960045533600560006101000a81548173ffffffffffffffffffffffffffffffffffffffff021916908373ffffffffffffffffffffffffffffffffffffffff160217905550348015620000b157600080fd5b506040516200128c3803806200128c83398181016040526020811015620000d757600080fd5b810190808051906020019092919050505080600160006101000a81548173ffffffffffffffffffffffffffffffffffffffff021916908373ffffffffffffffffffffffffffffffffffffffff16021790555050620001e6565b828054600181600116156101000203166002900490600052602060002090601f016020900481019282620001685760008555620001b4565b82601f106200018357805160ff1916838001178555620001b4565b82800160010185558215620001b4579182015b82811115620001b357825182559160200191906001019062000196565b5b509050620001c39190620001c7565b5090565b5b80821115620001e2576000816000905550600101620001c8565b5090565b61109680620001f66000396000f3fe608060405234801561001057600080fd5b50600436106100cf5760003560e01c80636a20de921161008c5780638da5cb5b116100665780638da5cb5b146103af578063c93c8f34146103e3578063f70b5c061461043d578063fd5e6dd114610471576100cf565b80636a20de92146102d95780636f49712b146103275780637547c7a314610381576100cf565b806306fdde03146100d45780632170e472146101575780632fa78085146101af57806345bc78ab1461020757806348a887061461025f578063608e4dd0146102ab575b600080fd5b6100dc6104c9565b6040518080602001828103825283818151815260200191508051906020019080838360005b8381101561011c578082015181840152602081019050610101565b50505050905090810190601f1680156101495780820380516001836020036101000a031916815260200191505b509250505060405180910390f35b6101996004803603602081101561016d57600080fd5b81019080803573ffffffffffffffffffffffffffffffffffffffff169060200190929190505050610567565b6040518082815260200191505060405180910390f35b6101f1600480360360208110156101c557600080fd5b81019080803573ffffffffffffffffffffffffffffffffffffffff16906020019092919050505061057f565b6040518082815260200191505060405180910390f35b6102496004803603602081101561021d57600080fd5b81019080803573ffffffffffffffffffffffffffffffffffffffff16906020019092919050505061064c565b6040518082815260200191505060405180910390f35b6102956004803603604081101561027557600080fd5b810190808035906020019092919080359060200190929190505050610664565b6040518082815260200191505060405180910390f35b6102d7600480360360208110156102c157600080fd5b8101908080359060200190929190505050610699565b005b610325600480360360408110156102ef57600080fd5b81019080803573ffffffffffffffffffffffffffffffffffffffff169060200190929190803590602001909291905050506109c8565b005b6103696004803603602081101561033d57600080fd5b81019080803573ffffffffffffffffffffffffffffffffffffffff169060200190929190505050610b25565b60405180821515815260200191505060405180910390f35b6103ad6004803603602081101561039757600080fd5b8101908080359060200190929190505050610b45565b005b6103b7610f44565b604051808273ffffffffffffffffffffffffffffffffffffffff16815260200191505060405180910390f35b610425600480360360208110156103f957600080fd5b81019080803573ffffffffffffffffffffffffffffffffffffffff169060200190929190505050610f6a565b60405180821515815260200191505060405180910390f35b610445610f8a565b604051808273ffffffffffffffffffffffffffffffffffffffff16815260200191505060405180910390f35b61049d6004803603602081101561048757600080fd5b8101908080359060200190929190505050610fb0565b604051808273ffffffffffffffffffffffffffffffffffffffff16815260200191505060405180910390f35b60008054600181600116156101000203166002900480601f01602080910402602001604051908101604052809291908181526020018280546001816001161561010002031660029004801561055f5780601f106105345761010080835404028352916020019161055f565b820191906000526020600020905b81548152906001019060200180831161054257829003601f168201915b505050505081565b60076020528060005260406000206000915090505481565b6000600160009054906101000a900473ffffffffffffffffffffffffffffffffffffffff1673ffffffffffffffffffffffffffffffffffffffff166370a08231836040518263ffffffff1660e01b8152600401808273ffffffffffffffffffffffffffffffffffffffff16815260200191505060206040518083038186803b15801561060a57600080fd5b505afa15801561061e573d6000803e3d6000fd5b505050506040513d602081101561063457600080fd5b81019080805190602001909291905050509050919050565b60066020528060005260406000206000915090505481565b60008082600354600a0a0a83600454600354600a0a010a8161068257fe5b048402905060008482039050809250505092915050565b600254600760003373ffffffffffffffffffffffffffffffffffffffff1673ffffffffffffffffffffffffffffffffffffffff16815260200190815260200160002054014211610734576040517f08c379a000000000000000000000000000000000000000000000000000000000815260040180806020018281038252603a815260200180611027603a913960400191505060405180910390fd5b6000600660003373ffffffffffffffffffffffffffffffffffffffff1673ffffffffffffffffffffffffffffffffffffffff168152602001908152602001600020549050600081116107ee576040517f08c379a000000000000000000000000000000000000000000000000000000000815260040180806020018281038252601d8152602001807f54686572652073686f756c6420626520736f6d652062616c616e63652100000081525060200191505060405180910390fd5b6107f833826109c8565b600660003373ffffffffffffffffffffffffffffffffffffffff1673ffffffffffffffffffffffffffffffffffffffff168152602001908152602001600020549050600160009054906101000a900473ffffffffffffffffffffffffffffffffffffffff1673ffffffffffffffffffffffffffffffffffffffff166323b872dd3033846040518463ffffffff1660e01b8152600401808473ffffffffffffffffffffffffffffffffffffffff1681526020018373ffffffffffffffffffffffffffffffffffffffff1681526020018281526020019350505050602060405180830381600087803b1580156108eb57600080fd5b505af11580156108ff573d6000803e3d6000fd5b505050506040513d602081101561091557600080fd5b8101908080519060200190929190505050506000600660003373ffffffffffffffffffffffffffffffffffffffff1673ffffffffffffffffffffffffffffffffffffffff168152602001908152602001600020819055506000600960003373ffffffffffffffffffffffffffffffffffffffff1673ffffffffffffffffffffffffffffffffffffffff16815260200190815260200160002060006101000a81548160ff0219169083151502179055505050565b6000600254600760008573ffffffffffffffffffffffffffffffffffffffff1673ffffffffffffffffffffffffffffffffffffffff16815260200190815260200160002054420381610a1657fe5b0490506000610a258383610664565b9050600160009054906101000a900473ffffffffffffffffffffffffffffffffffffffff1673ffffffffffffffffffffffffffffffffffffffff166340c10f1930836040518363ffffffff1660e01b8152600401808373ffffffffffffffffffffffffffffffffffffffff16815260200182815260200192505050600060405180830381600087803b158015610aba57600080fd5b505af1158015610ace573d6000803e3d6000fd5b5050505080600660008673ffffffffffffffffffffffffffffffffffffffff1673ffffffffffffffffffffffffffffffffffffffff1681526020019081526020016000206000828254019250508190555050505050565b60096020528060005260406000206000915054906101000a900460ff1681565b60008111610bbb576040517f08c379a00000000000000000000000000000000000000000000000000000000081526004018080602001828103825260138152602001807f416d6f756e742063616e6e6f742062652030210000000000000000000000000081525060200191505060405180910390fd5b600960003373ffffffffffffffffffffffffffffffffffffffff1673ffffffffffffffffffffffffffffffffffffffff16815260200190815260200160002060009054906101000a900460ff1615610c5e576040517f08c379a0000000000000000000000000000000000000000000000000000000008152600401808060200182810382526037815260200180610ff06037913960400191505060405180910390fd5b600160009054906101000a900473ffffffffffffffffffffffffffffffffffffffff1673ffffffffffffffffffffffffffffffffffffffff166323b872dd3330846040518463ffffffff1660e01b8152600401808473ffffffffffffffffffffffffffffffffffffffff1681526020018373ffffffffffffffffffffffffffffffffffffffff1681526020018281526020019350505050602060405180830381600087803b158015610d0f57600080fd5b505af1158015610d23573d6000803e3d6000fd5b505050506040513d6020811015610d3957600080fd5b81019080805190602001909291905050505080600660003373ffffffffffffffffffffffffffffffffffffffff1673ffffffffffffffffffffffffffffffffffffffff1681526020019081526020016000206000828254019250508190555042600760003373ffffffffffffffffffffffffffffffffffffffff1673ffffffffffffffffffffffffffffffffffffffff16815260200190815260200160002081905550600860003373ffffffffffffffffffffffffffffffffffffffff1673ffffffffffffffffffffffffffffffffffffffff16815260200190815260200160002060009054906101000a900460ff16610e9157600a339080600181540180825580915050600190039060005260206000200160009091909190916101000a81548173ffffffffffffffffffffffffffffffffffffffff021916908373ffffffffffffffffffffffffffffffffffffffff1602179055505b6001600860003373ffffffffffffffffffffffffffffffffffffffff1673ffffffffffffffffffffffffffffffffffffffff16815260200190815260200160002060006101000a81548160ff0219169083151502179055506001600960003373ffffffffffffffffffffffffffffffffffffffff1673ffffffffffffffffffffffffffffffffffffffff16815260200190815260200160002060006101000a81548160ff02191690831515021790555050565b600560009054906101000a900473ffffffffffffffffffffffffffffffffffffffff1681565b60086020528060005260406000206000915054906101000a900460ff1681565b600160009054906101000a900473ffffffffffffffffffffffffffffffffffffffff1681565b600a8181548110610fc057600080fd5b906000526020600020016000915054906101000a900473ffffffffffffffffffffffffffffffffffffffff168156fe596f752063616e206f6e6c79207374616b6520616674657220796f7520756e7374616b65207468652063757272656e742076616c756521596f752063616e277420756e7374616b6520746865204d445420546f6b656e7320666f722061206d696e696d756d206f66203330206461797321a2646970667358221220e413e10addc9cc022a55400dc65e8951c0f832f400e33c028c2630151b28a05e64736f6c63430007060033",
  "immutableReferences": {},
  "source": "// SPDX-License-Identifier: MIT\r\n\r\n\r\npragma solidity >=0.4.22 <0.9.0;\r\n\r\n//Imported MDT Token from contracts\r\nimport \"./MDT_Token.sol\";\r\n\r\n/* @author: The StakePool contract locks the coins for staking, such that an address can stake the coin once only.\r\n\t\t\tThe effective interest rate = 0.41% which is compounded monthly. The Annual Percentage Yeild can be \r\n\t\t\texpected of approx 5.03%.  \r\n*/\r\ncontract StakePool{\r\n\r\n\t// @dev : Stake Pool System\r\n\tstring public name = \"Stake Pool System\";\r\n\r\n\tMdtToken public mdtToken; //Initialized MdtToken contract\r\n\r\n\tuint reward_period = 30 days; // reward period is 30 days\r\n\tuint decimals = 4;\r\n\tuint interest_rate = 41;\r\n\r\n\taddress public owner = msg.sender;\r\n\r\n\tmapping (address => uint) public stakingBalance; // stores staking balance for address\r\n\tmapping (address => uint) public stakeTime; // stores staking time for the instant staking starts\r\n\tmapping (address => bool) public hasStaked; \r\n\tmapping (address => bool) public isStaking;\r\n\r\n\taddress[] public stakers; // address array of stakers\r\n\r\n\tconstructor(MdtToken _mdtToken) public{\r\n\r\n\t\tmdtToken = _mdtToken;\r\n\r\n\t}\r\n\r\n\tfunction getBal(address _caller) public view returns(uint256) {\r\n\t    \r\n\t   return mdtToken.balanceOf(_caller);\r\n\t    \r\n\t}\r\n\r\n\tfunction stakeTokens(uint _amount) public {\r\n\r\n\t\trequire (_amount > 0 , 'Amount cannot be 0!');\r\n\r\n\t\trequire (!isStaking[msg.sender], 'You can only stake after you unstake the current value!');\r\n\t\t\r\n  \t\r\n  \t\t// Transfer MDT Tokens to this contract for staking\r\n\t\tmdtToken.transferFrom(msg.sender, address(this), _amount) ;\r\n\r\n  \t\t// Update staking balance and staking time\r\n\t\tstakingBalance[msg.sender] += _amount;\r\n\t\tstakeTime[msg.sender] = block.timestamp;\r\n\r\n\r\n  \t\t// Add stakers to the stakers array *ONLY* if they haven't staked already\r\n  \t\tif (!hasStaked[msg.sender]) {\r\n  \t\t\tstakers.push(msg.sender);\r\n  \t\t}\r\n\r\n  \t\thasStaked[msg.sender] = true;\r\n  \t\tisStaking[msg.sender] = true;\r\n  \r\n\t}\r\n\t\r\n\r\n\tfunction mintRewards(address _staker, uint _balance) public {\r\n\r\n\t\t\r\n\t\tuint reward_time = uint((block.timestamp - stakeTime[_staker])/reward_period);\r\n\r\n\t\tuint reward_tokens = calculateRewards(_balance, reward_time);\r\n\t\tmdtToken.mint(address(this), reward_tokens);\r\n\r\n\t\tstakingBalance[_staker] += reward_tokens;\r\n\r\n\t}\r\n\r\n\tfunction calculateRewards(uint _balance, uint _rewardTime) public returns(uint){\r\n\r\n\t\tuint _amount = _balance  *  uint( (((10**decimals) + interest_rate) ** _rewardTime) / ((10**decimals) ** _rewardTime) );\r\n\t\tuint _reward = _amount - _balance;\r\n\t\treturn _reward;\r\n\r\n\t}\r\n\t\r\n\tfunction unstakeTokens(uint _amount) public{\r\n\r\n\t\trequire(block.timestamp > stakeTime[msg.sender] + reward_period , \"You can't unstake the MDT Tokens for a minimum of 30 days!\");\r\n\r\n\t\tuint balance = stakingBalance[msg.sender];\r\n  \t\t\r\n  \t\trequire (balance > 0, 'There should be some balance!');\r\n\r\n  \t\tmintRewards(msg.sender,balance);\r\n  \t\tbalance = stakingBalance[msg.sender];\r\n  \t\tmdtToken.transferFrom(address(this), msg.sender, balance);\r\n\r\n\t  \tstakingBalance[msg.sender] =0;\r\n\t  \tisStaking[msg.sender] = false;\r\n\t}\r\n\r\n\r\n}",
  "sourcePath": "D:/PROJECTS/Blockchain/Stake-DeFi System/contracts/Stake_Pool.sol",
  "compiler": {
    "name": "solc",
    "version": "0.7.6+commit.7338295f.Emscripten.clang"
  },
  "schemaVersion": "3.3.3",
  "updatedAt": "2021-01-29T11:22:30.556Z",
  "networkType": "ethereum",
  "devdoc": {
    "kind": "dev",
    "methods": {},
    "version": 1
  },
  "userdoc": {
    "kind": "user",
    "methods": {},
    "version": 1
  }
}